{
  "_format": "hh-sol-artifact-1",
  "contractName": "RariNFT",
  "sourceName": "contracts/RariNFT.sol",
  "abi": [
    {
      "inputs": [],
      "stateMutability": "nonpayable",
      "type": "constructor"
    },
    {
      "anonymous": false,
      "inputs": [
        {
          "indexed": true,
          "internalType": "address",
          "name": "owner",
          "type": "address"
        },
        {
          "indexed": true,
          "internalType": "address",
          "name": "approved",
          "type": "address"
        },
        {
          "indexed": true,
          "internalType": "uint256",
          "name": "tokenId",
          "type": "uint256"
        }
      ],
      "name": "Approval",
      "type": "event"
    },
    {
      "anonymous": false,
      "inputs": [
        {
          "indexed": true,
          "internalType": "address",
          "name": "owner",
          "type": "address"
        },
        {
          "indexed": true,
          "internalType": "address",
          "name": "operator",
          "type": "address"
        },
        {
          "indexed": false,
          "internalType": "bool",
          "name": "approved",
          "type": "bool"
        }
      ],
      "name": "ApprovalForAll",
      "type": "event"
    },
    {
      "anonymous": false,
      "inputs": [
        {
          "indexed": false,
          "internalType": "address",
          "name": "_sender",
          "type": "address"
        },
        {
          "indexed": false,
          "internalType": "uint256",
          "name": "_tokenId",
          "type": "uint256"
        }
      ],
      "name": "NewRareNFTMinted",
      "type": "event"
    },
    {
      "anonymous": false,
      "inputs": [
        {
          "indexed": true,
          "internalType": "address",
          "name": "from",
          "type": "address"
        },
        {
          "indexed": true,
          "internalType": "address",
          "name": "to",
          "type": "address"
        },
        {
          "indexed": true,
          "internalType": "uint256",
          "name": "tokenId",
          "type": "uint256"
        }
      ],
      "name": "Transfer",
      "type": "event"
    },
    {
      "inputs": [],
      "name": "MAX_MINT_LIMIT",
      "outputs": [
        {
          "internalType": "uint256",
          "name": "",
          "type": "uint256"
        }
      ],
      "stateMutability": "view",
      "type": "function"
    },
    {
      "inputs": [
        {
          "internalType": "address",
          "name": "",
          "type": "address"
        }
      ],
      "name": "_balanceOf",
      "outputs": [
        {
          "internalType": "uint256",
          "name": "",
          "type": "uint256"
        }
      ],
      "stateMutability": "view",
      "type": "function"
    },
    {
      "inputs": [
        {
          "internalType": "string",
          "name": "_uri",
          "type": "string"
        }
      ],
      "name": "_setBaseTokenURI",
      "outputs": [],
      "stateMutability": "nonpayable",
      "type": "function"
    },
    {
      "inputs": [
        {
          "internalType": "uint256",
          "name": "newItemId",
          "type": "uint256"
        }
      ],
      "name": "_tokenURI",
      "outputs": [
        {
          "internalType": "string",
          "name": "",
          "type": "string"
        }
      ],
      "stateMutability": "pure",
      "type": "function"
    },
    {
      "inputs": [
        {
          "internalType": "address",
          "name": "to",
          "type": "address"
        },
        {
          "internalType": "uint256",
          "name": "tokenId",
          "type": "uint256"
        }
      ],
      "name": "approve",
      "outputs": [],
      "stateMutability": "nonpayable",
      "type": "function"
    },
    {
      "inputs": [
        {
          "internalType": "address",
          "name": "owner",
          "type": "address"
        }
      ],
      "name": "balanceOf",
      "outputs": [
        {
          "internalType": "uint256",
          "name": "",
          "type": "uint256"
        }
      ],
      "stateMutability": "view",
      "type": "function"
    },
    {
      "inputs": [
        {
          "internalType": "uint256",
          "name": "tokenId",
          "type": "uint256"
        }
      ],
      "name": "getApproved",
      "outputs": [
        {
          "internalType": "address",
          "name": "",
          "type": "address"
        }
      ],
      "stateMutability": "view",
      "type": "function"
    },
    {
      "inputs": [],
      "name": "getTotalNFTMintedSoFar",
      "outputs": [
        {
          "internalType": "uint256",
          "name": "",
          "type": "uint256"
        }
      ],
      "stateMutability": "view",
      "type": "function"
    },
    {
      "inputs": [],
      "name": "getUserNFTMintedSoFar",
      "outputs": [
        {
          "internalType": "uint256",
          "name": "",
          "type": "uint256"
        }
      ],
      "stateMutability": "view",
      "type": "function"
    },
    {
      "inputs": [
        {
          "internalType": "address",
          "name": "owner",
          "type": "address"
        },
        {
          "internalType": "address",
          "name": "operator",
          "type": "address"
        }
      ],
      "name": "isApprovedForAll",
      "outputs": [
        {
          "internalType": "bool",
          "name": "",
          "type": "bool"
        }
      ],
      "stateMutability": "view",
      "type": "function"
    },
    {
      "inputs": [],
      "name": "makeRariNFT",
      "outputs": [],
      "stateMutability": "nonpayable",
      "type": "function"
    },
    {
      "inputs": [],
      "name": "name",
      "outputs": [
        {
          "internalType": "string",
          "name": "",
          "type": "string"
        }
      ],
      "stateMutability": "view",
      "type": "function"
    },
    {
      "inputs": [],
      "name": "owner",
      "outputs": [
        {
          "internalType": "address",
          "name": "",
          "type": "address"
        }
      ],
      "stateMutability": "view",
      "type": "function"
    },
    {
      "inputs": [
        {
          "internalType": "uint256",
          "name": "tokenId",
          "type": "uint256"
        }
      ],
      "name": "ownerOf",
      "outputs": [
        {
          "internalType": "address",
          "name": "",
          "type": "address"
        }
      ],
      "stateMutability": "view",
      "type": "function"
    },
    {
      "inputs": [
        {
          "internalType": "address",
          "name": "from",
          "type": "address"
        },
        {
          "internalType": "address",
          "name": "to",
          "type": "address"
        },
        {
          "internalType": "uint256",
          "name": "tokenId",
          "type": "uint256"
        }
      ],
      "name": "safeTransferFrom",
      "outputs": [],
      "stateMutability": "nonpayable",
      "type": "function"
    },
    {
      "inputs": [
        {
          "internalType": "address",
          "name": "from",
          "type": "address"
        },
        {
          "internalType": "address",
          "name": "to",
          "type": "address"
        },
        {
          "internalType": "uint256",
          "name": "tokenId",
          "type": "uint256"
        },
        {
          "internalType": "bytes",
          "name": "_data",
          "type": "bytes"
        }
      ],
      "name": "safeTransferFrom",
      "outputs": [],
      "stateMutability": "nonpayable",
      "type": "function"
    },
    {
      "inputs": [
        {
          "internalType": "address",
          "name": "operator",
          "type": "address"
        },
        {
          "internalType": "bool",
          "name": "approved",
          "type": "bool"
        }
      ],
      "name": "setApprovalForAll",
      "outputs": [],
      "stateMutability": "nonpayable",
      "type": "function"
    },
    {
      "inputs": [
        {
          "internalType": "bytes4",
          "name": "interfaceId",
          "type": "bytes4"
        }
      ],
      "name": "supportsInterface",
      "outputs": [
        {
          "internalType": "bool",
          "name": "",
          "type": "bool"
        }
      ],
      "stateMutability": "view",
      "type": "function"
    },
    {
      "inputs": [],
      "name": "symbol",
      "outputs": [
        {
          "internalType": "string",
          "name": "",
          "type": "string"
        }
      ],
      "stateMutability": "view",
      "type": "function"
    },
    {
      "inputs": [
        {
          "internalType": "uint256",
          "name": "tokenId",
          "type": "uint256"
        }
      ],
      "name": "tokenURI",
      "outputs": [
        {
          "internalType": "string",
          "name": "",
          "type": "string"
        }
      ],
      "stateMutability": "view",
      "type": "function"
    },
    {
      "inputs": [
        {
          "internalType": "address",
          "name": "from",
          "type": "address"
        },
        {
          "internalType": "address",
          "name": "to",
          "type": "address"
        },
        {
          "internalType": "uint256",
          "name": "tokenId",
          "type": "uint256"
        }
      ],
      "name": "transferFrom",
      "outputs": [],
      "stateMutability": "nonpayable",
      "type": "function"
    }
  ],
  "bytecode": "0x608060405260326009553480156200001657600080fd5b506040518060400160405280600881526020017f526172694e414d450000000000000000000000000000000000000000000000008152506040518060400160405280600581526020017f4e5241524900000000000000000000000000000000000000000000000000000081525081600090805190602001906200009b929190620000fe565b508060019080519060200190620000b4929190620000fe565b50505033600a60006101000a81548173ffffffffffffffffffffffffffffffffffffffff021916908373ffffffffffffffffffffffffffffffffffffffff16021790555062000213565b8280546200010c90620001ae565b90600052602060002090601f0160209004810192826200013057600085556200017c565b82601f106200014b57805160ff19168380011785556200017c565b828001600101855582156200017c579182015b828111156200017b5782518255916020019190600101906200015e565b5b5090506200018b91906200018f565b5090565b5b80821115620001aa57600081600090555060010162000190565b5090565b60006002820490506001821680620001c757607f821691505b60208210811415620001de57620001dd620001e4565b5b50919050565b7f4e487b7100000000000000000000000000000000000000000000000000000000600052602260045260246000fd5b61463380620002236000396000f3fe608060405234801561001057600080fd5b50600436106101375760003560e01c80637f59230f116100b8578063b88d4fde1161007c578063b88d4fde1461034e578063c87b56dd1461036a578063cca3e8321461039a578063d554ae5a146103ca578063e985e9c5146103e8578063f0548cdb1461041857610137565b80637f59230f146102a85780638d17e712146102c65780638da5cb5b146102f657806395d89b4114610314578063a22cb4651461033257610137565b806342842e0e116100ff57806342842e0e146101f257806359f4a51e1461020e5780636352211e1461022c57806370a082311461025c5780637d4aafb41461028c57610137565b806301ffc9a71461013c57806306fdde031461016c578063081812fc1461018a578063095ea7b3146101ba57806323b872dd146101d6575b600080fd5b61015660048036038101906101519190612eda565b610422565b604051610163919061364b565b60405180910390f35b610174610504565b6040516101819190613666565b60405180910390f35b6101a4600480360381019061019f9190612f6d565b610596565b6040516101b191906135bb565b60405180910390f35b6101d460048036038101906101cf9190612e9e565b61061b565b005b6101f060048036038101906101eb9190612d98565b610733565b005b61020c60048036038101906102079190612d98565b610793565b005b6102166107b3565b6040516102239190613906565b60405180910390f35b61024660048036038101906102419190612f6d565b6107c4565b60405161025391906135bb565b60405180910390f35b61027660048036038101906102719190612d33565b610876565b6040516102839190613906565b60405180910390f35b6102a660048036038101906102a19190612f2c565b61092e565b005b6102b06109d8565b6040516102bd9190613906565b60405180910390f35b6102e060048036038101906102db9190612f6d565b6109de565b6040516102ed9190613666565b60405180910390f35b6102fe610c39565b60405161030b91906135bb565b60405180910390f35b61031c610c5f565b6040516103299190613666565b60405180910390f35b61034c60048036038101906103479190612e62565b610cf1565b005b61036860048036038101906103639190612de7565b610e72565b005b610384600480360381019061037f9190612f6d565b610ed4565b6040516103919190613666565b60405180910390f35b6103b460048036038101906103af9190612d33565b611026565b6040516103c19190613906565b60405180910390f35b6103d261103e565b6040516103df9190613906565b60405180910390f35b61040260048036038101906103fd9190612d5c565b611085565b60405161040f919061364b565b60405180910390f35b610420611119565b005b60007f80ac58cd000000000000000000000000000000000000000000000000000000007bffffffffffffffffffffffffffffffffffffffffffffffffffffffff1916827bffffffffffffffffffffffffffffffffffffffffffffffffffffffff191614806104ed57507f5b5e139f000000000000000000000000000000000000000000000000000000007bffffffffffffffffffffffffffffffffffffffffffffffffffffffff1916827bffffffffffffffffffffffffffffffffffffffffffffffffffffffff1916145b806104fd57506104fc826112a9565b5b9050919050565b60606000805461051390613bb6565b80601f016020809104026020016040519081016040528092919081815260200182805461053f90613bb6565b801561058c5780601f106105615761010080835404028352916020019161058c565b820191906000526020600020905b81548152906001019060200180831161056f57829003601f168201915b5050505050905090565b60006105a182611313565b6105e0576040517f08c379a00000000000000000000000000000000000000000000000000000000081526004016105d790613826565b60405180910390fd5b6004600083815260200190815260200160002060009054906101000a900473ffffffffffffffffffffffffffffffffffffffff169050919050565b6000610626826107c4565b90508073ffffffffffffffffffffffffffffffffffffffff168373ffffffffffffffffffffffffffffffffffffffff161415610697576040517f08c379a000000000000000000000000000000000000000000000000000000000815260040161068e90613886565b60405180910390fd5b8073ffffffffffffffffffffffffffffffffffffffff166106b661137f565b73ffffffffffffffffffffffffffffffffffffffff1614806106e557506106e4816106df61137f565b611085565b5b610724576040517f08c379a000000000000000000000000000000000000000000000000000000000815260040161071b90613766565b60405180910390fd5b61072e8383611387565b505050565b61074461073e61137f565b82611440565b610783576040517f08c379a000000000000000000000000000000000000000000000000000000000815260040161077a906138a6565b60405180910390fd5b61078e83838361151e565b505050565b6107ae83838360405180602001604052806000815250610e72565b505050565b60006107bf600761177a565b905090565b6000806002600084815260200190815260200160002060009054906101000a900473ffffffffffffffffffffffffffffffffffffffff169050600073ffffffffffffffffffffffffffffffffffffffff168173ffffffffffffffffffffffffffffffffffffffff16141561086d576040517f08c379a0000000000000000000000000000000000000000000000000000000008152600401610864906137a6565b60405180910390fd5b80915050919050565b60008073ffffffffffffffffffffffffffffffffffffffff168273ffffffffffffffffffffffffffffffffffffffff1614156108e7576040517f08c379a00000000000000000000000000000000000000000000000000000000081526004016108de90613786565b60405180910390fd5b600360008373ffffffffffffffffffffffffffffffffffffffff1673ffffffffffffffffffffffffffffffffffffffff168152602001908152602001600020549050919050565b600a60009054906101000a900473ffffffffffffffffffffffffffffffffffffffff1673ffffffffffffffffffffffffffffffffffffffff163373ffffffffffffffffffffffffffffffffffffffff16146109be576040517f08c379a00000000000000000000000000000000000000000000000000000000081526004016109b5906138e6565b60405180910390fd5b80600890805190602001906109d4929190612b57565b5050565b60095481565b6060600060405180610100016040528060d3815260200161449560d39139905060006040518060800160405280605681526020016145a860569139905060006040518060c001604052806040518060400160405280600381526020017f726564000000000000000000000000000000000000000000000000000000000081525081526020016040518060400160405280600781526020017f233038433241380000000000000000000000000000000000000000000000000081525081526020016040518060400160405280600581526020017f626c61636b00000000000000000000000000000000000000000000000000000081525081526020016040518060400160405280600681526020017f79656c6c6f77000000000000000000000000000000000000000000000000000081525081526020016040518060400160405280600481526020017f626c75650000000000000000000000000000000000000000000000000000000081525081526020016040518060400160405280600581526020017f677265656e00000000000000000000000000000000000000000000000000000081525081525090506000610b9586611788565b90506000610ba38784611e13565b9050600085828685604051602001610bbe9493929190613483565b60405160208183030381529060405290506000610c0384610bde84611e9f565b604051602001610bef929190613510565b604051602081830303815290604052611e9f565b9050600081604051602001610c189190613577565b60405160208183030381529060405290508098505050505050505050919050565b600a60009054906101000a900473ffffffffffffffffffffffffffffffffffffffff1681565b606060018054610c6e90613bb6565b80601f0160208091040260200160405190810160405280929190818152602001828054610c9a90613bb6565b8015610ce75780601f10610cbc57610100808354040283529160200191610ce7565b820191906000526020600020905b815481529060010190602001808311610cca57829003601f168201915b5050505050905090565b610cf961137f565b73ffffffffffffffffffffffffffffffffffffffff168273ffffffffffffffffffffffffffffffffffffffff161415610d67576040517f08c379a0000000000000000000000000000000000000000000000000000000008152600401610d5e90613726565b60405180910390fd5b8060056000610d7461137f565b73ffffffffffffffffffffffffffffffffffffffff1673ffffffffffffffffffffffffffffffffffffffff16815260200190815260200160002060008473ffffffffffffffffffffffffffffffffffffffff1673ffffffffffffffffffffffffffffffffffffffff16815260200190815260200160002060006101000a81548160ff0219169083151502179055508173ffffffffffffffffffffffffffffffffffffffff16610e2161137f565b73ffffffffffffffffffffffffffffffffffffffff167f17307eab39ab6107e8899845ad3d59bd9653f200f220920489ca2b5937696c3183604051610e66919061364b565b60405180910390a35050565b610e83610e7d61137f565b83611440565b610ec2576040517f08c379a0000000000000000000000000000000000000000000000000000000008152600401610eb9906138a6565b60405180910390fd5b610ece8484848461205d565b50505050565b6060610edf82611313565b610f1e576040517f08c379a0000000000000000000000000000000000000000000000000000000008152600401610f1590613806565b60405180910390fd5b6000600660008481526020019081526020016000208054610f3e90613bb6565b80601f0160208091040260200160405190810160405280929190818152602001828054610f6a90613bb6565b8015610fb75780601f10610f8c57610100808354040283529160200191610fb7565b820191906000526020600020905b815481529060010190602001808311610f9a57829003601f168201915b505050505090506000610fc86120b9565b9050600081511415610fde578192505050611021565b600082511115611013578082604051602001610ffb92919061342e565b60405160208183030381529060405292505050611021565b61101c8461214b565b925050505b919050565b600c6020528060005260406000206000915090505481565b6000600c60003373ffffffffffffffffffffffffffffffffffffffff1673ffffffffffffffffffffffffffffffffffffffff16815260200190815260200160002054905090565b6000600560008473ffffffffffffffffffffffffffffffffffffffff1673ffffffffffffffffffffffffffffffffffffffff16815260200190815260200160002060008373ffffffffffffffffffffffffffffffffffffffff1673ffffffffffffffffffffffffffffffffffffffff16815260200190815260200160002060009054906101000a900460ff16905092915050565b6000611125600761177a565b905080600954101561116c576040517f08c379a0000000000000000000000000000000000000000000000000000000008152600401611163906138c6565b60405180910390fd5b6000611177826109de565b9050611182816121f2565b61118c338361228b565b61119682826122a9565b6111a0600761231d565b33600b600084815260200190815260200160002060006101000a81548173ffffffffffffffffffffffffffffffffffffffff021916908373ffffffffffffffffffffffffffffffffffffffff1602179055506001600c60003373ffffffffffffffffffffffffffffffffffffffff1673ffffffffffffffffffffffffffffffffffffffff168152602001908152602001600020600082825461124291906139eb565b925050819055507f115800588b472877efdfb4e0d7ca273500ddb61c5f55e362db932032711a9d31338360405161127a929190613622565b60405180910390a16112a5604051806060016040528060258152602001614470602591398333612333565b5050565b60007f01ffc9a7000000000000000000000000000000000000000000000000000000007bffffffffffffffffffffffffffffffffffffffffffffffffffffffff1916827bffffffffffffffffffffffffffffffffffffffffffffffffffffffff1916149050919050565b60008073ffffffffffffffffffffffffffffffffffffffff166002600084815260200190815260200160002060009054906101000a900473ffffffffffffffffffffffffffffffffffffffff1673ffffffffffffffffffffffffffffffffffffffff1614159050919050565b600033905090565b816004600083815260200190815260200160002060006101000a81548173ffffffffffffffffffffffffffffffffffffffff021916908373ffffffffffffffffffffffffffffffffffffffff160217905550808273ffffffffffffffffffffffffffffffffffffffff166113fa836107c4565b73ffffffffffffffffffffffffffffffffffffffff167f8c5be1e5ebec7d5bd14f71427d1e84f3dd0314c0f7b2291e5b200ac8c7c3b92560405160405180910390a45050565b600061144b82611313565b61148a576040517f08c379a000000000000000000000000000000000000000000000000000000000815260040161148190613746565b60405180910390fd5b6000611495836107c4565b90508073ffffffffffffffffffffffffffffffffffffffff168473ffffffffffffffffffffffffffffffffffffffff16148061150457508373ffffffffffffffffffffffffffffffffffffffff166114ec84610596565b73ffffffffffffffffffffffffffffffffffffffff16145b8061151557506115148185611085565b5b91505092915050565b8273ffffffffffffffffffffffffffffffffffffffff1661153e826107c4565b73ffffffffffffffffffffffffffffffffffffffff1614611594576040517f08c379a000000000000000000000000000000000000000000000000000000000815260040161158b90613846565b60405180910390fd5b600073ffffffffffffffffffffffffffffffffffffffff168273ffffffffffffffffffffffffffffffffffffffff161415611604576040517f08c379a00000000000000000000000000000000000000000000000000000000081526004016115fb90613706565b60405180910390fd5b61160f8383836123d2565b61161a600082611387565b6001600360008573ffffffffffffffffffffffffffffffffffffffff1673ffffffffffffffffffffffffffffffffffffffff168152602001908152602001600020600082825461166a9190613acc565b925050819055506001600360008473ffffffffffffffffffffffffffffffffffffffff1673ffffffffffffffffffffffffffffffffffffffff16815260200190815260200160002060008282546116c191906139eb565b92505081905550816002600083815260200190815260200160002060006101000a81548173ffffffffffffffffffffffffffffffffffffffff021916908373ffffffffffffffffffffffffffffffffffffffff160217905550808273ffffffffffffffffffffffffffffffffffffffff168473ffffffffffffffffffffffffffffffffffffffff167fddf252ad1be2c89b69c2b068fc378daa952ba7f163c4a11628f55a4df523b3ef60405160405180910390a4505050565b600081600001549050919050565b606060006040518061012001604052806040518060400160405280600781526020017f53616974616d610000000000000000000000000000000000000000000000000081525081526020016040518060400160405280600481526020017f476f6b750000000000000000000000000000000000000000000000000000000081525081526020016040518060400160405280600681526020017f566567657461000000000000000000000000000000000000000000000000000081525081526020016040518060400160405280600581526020017f4c7566667900000000000000000000000000000000000000000000000000000081525081526020016040518060400160405280600681526020017f49636869676f000000000000000000000000000000000000000000000000000081525081526020016040518060400160405280600681526020017f416f6d696e65000000000000000000000000000000000000000000000000000081525081526020016040518060400160405280600481526020017f4b6972610000000000000000000000000000000000000000000000000000000081525081526020016040518060400160405280600681526020017f4e617275746f000000000000000000000000000000000000000000000000000081525081526020016040518060400160405280600481526020017f44656b7500000000000000000000000000000000000000000000000000000000815250815250905060006040518061010001604052806040518060400160405280600581526020017f536c61707300000000000000000000000000000000000000000000000000000081525081526020016040518060400160405280600781526020017f50756e636865730000000000000000000000000000000000000000000000000081525081526020016040518060400160405280600581526020017f4b69636b7300000000000000000000000000000000000000000000000000000081525081526020016040518060400160405280600581526020017f4b696c6c7300000000000000000000000000000000000000000000000000000081525081526020016040518060400160405280600581526020017f4c6f76657300000000000000000000000000000000000000000000000000000081525081526020016040518060400160405280600581526020017f486174657300000000000000000000000000000000000000000000000000000081525081526020016040518060400160405280600481526020017f456e76790000000000000000000000000000000000000000000000000000000081525081526020016040518060400160405280600681526020017f5374617265730000000000000000000000000000000000000000000000000000815250815250905060006040518061012001604052806040518060400160405280600481526020017f4c696f6e0000000000000000000000000000000000000000000000000000000081525081526020016040518060400160405280600581526020017f4879656e6100000000000000000000000000000000000000000000000000000081525081526020016040518060400160405280600581526020017f546967657200000000000000000000000000000000000000000000000000000081525081526020016040518060400160405280600581526020017f536e616b6500000000000000000000000000000000000000000000000000000081525081526020016040518060400160405280600881526020017f456c657068616e7400000000000000000000000000000000000000000000000081525081526020016040518060400160405280600781526020017f436865657461680000000000000000000000000000000000000000000000000081525081526020016040518060400160405280600681526020017f4d6f6e6b6579000000000000000000000000000000000000000000000000000081525081526020016040518060400160405280600581526020017f4368696d7000000000000000000000000000000000000000000000000000000081525081526020016040518060400160405280600581526020017f4561676c6500000000000000000000000000000000000000000000000000000081525081525090506000611dbe86856123d7565b90506000611dcc8785612463565b90506000611dda88856124ef565b90506000838383604051602001611df393929190613452565b604051602081830303815290604052905080975050505050505050919050565b60606000611e47611e238561257b565b604051602001611e339190613599565b604051602081830303815290604052612728565b9050600681611e569190613c62565b9050828160068110611e91577f4e487b7100000000000000000000000000000000000000000000000000000000600052603260045260246000fd5b602002015191505092915050565b60606000825190506000811415611ec85760405180602001604052806000815250915050612058565b60006003600283611ed991906139eb565b611ee39190613a41565b6004611eef9190613a72565b90506000602082611f0091906139eb565b67ffffffffffffffff811115611f3f577f4e487b7100000000000000000000000000000000000000000000000000000000600052604160045260246000fd5b6040519080825280601f01601f191660200182016040528015611f715781602001600182028036833780820191505090505b5090506000604051806060016040528060408152602001614568604091399050600181016020830160005b868110156120155760038101905062ffffff818a015116603f8160121c168401518060081b905060ff603f83600c1c1686015116810190508060081b905060ff603f8360061c1686015116810190508060081b905060ff603f831686015116810190508060e01b90508084526004840193505050611f9c565b50600386066001811461202f576002811461203f5761204a565b613d3d60f01b600283035261204a565b603d60f81b60018303525b508484525050819450505050505b919050565b61206884848461151e565b6120748484848461275b565b6120b3576040517f08c379a00000000000000000000000000000000000000000000000000000000081526004016120aa906136c6565b60405180910390fd5b50505050565b6060600880546120c890613bb6565b80601f01602080910402602001604051908101604052809291908181526020018280546120f490613bb6565b80156121415780601f1061211657610100808354040283529160200191612141565b820191906000526020600020905b81548152906001019060200180831161212457829003601f168201915b5050505050905090565b606061215682611313565b612195576040517f08c379a000000000000000000000000000000000000000000000000000000000815260040161218c90613866565b60405180910390fd5b600061219f6120b9565b905060008151116121bf57604051806020016040528060008152506121ea565b806121c98461257b565b6040516020016121da92919061342e565b6040516020818303038152906040525b915050919050565b612288816040516024016122069190613666565b6040516020818303038152906040527f41304fac000000000000000000000000000000000000000000000000000000007bffffffffffffffffffffffffffffffffffffffffffffffffffffffff19166020820180517bffffffffffffffffffffffffffffffffffffffffffffffffffffffff83818316178352505050506128f2565b50565b6122a582826040518060200160405280600081525061291b565b5050565b6122b282611313565b6122f1576040517f08c379a00000000000000000000000000000000000000000000000000000000081526004016122e8906137c6565b60405180910390fd5b80600660008481526020019081526020016000209080519060200190612318929190612b57565b505050565b6001816000016000828254019250508190555050565b6123cd83838360405160240161234b93929190613688565b6040516020818303038152906040527fe3849f79000000000000000000000000000000000000000000000000000000007bffffffffffffffffffffffffffffffffffffffffffffffffffffffff19166020820180517bffffffffffffffffffffffffffffffffffffffffffffffffffffffff83818316178352505050506128f2565b505050565b505050565b6060600061240b6123e78561257b565b6040516020016123f79190613555565b604051602081830303815290604052612728565b905060098161241a9190613c62565b9050828160098110612455577f4e487b7100000000000000000000000000000000000000000000000000000000600052603260045260246000fd5b602002015191505092915050565b606060006124976124738561257b565b60405160200161248391906134ee565b604051602081830303815290604052612728565b90506008816124a69190613c62565b90508281600881106124e1577f4e487b7100000000000000000000000000000000000000000000000000000000600052603260045260246000fd5b602002015191505092915050565b606060006125236124ff8561257b565b60405160200161250f91906134cc565b604051602081830303815290604052612728565b90506009816125329190613c62565b905082816009811061256d577f4e487b7100000000000000000000000000000000000000000000000000000000600052603260045260246000fd5b602002015191505092915050565b606060008214156125c3576040518060400160405280600181526020017f30000000000000000000000000000000000000000000000000000000000000008152509050612723565b600082905060005b600082146125f55780806125de90613c19565b915050600a826125ee9190613a41565b91506125cb565b60008167ffffffffffffffff811115612637577f4e487b7100000000000000000000000000000000000000000000000000000000600052604160045260246000fd5b6040519080825280601f01601f1916602001820160405280156126695781602001600182028036833780820191505090505b5090505b6000851461271c576001826126829190613acc565b9150600a856126919190613c62565b603061269d91906139eb565b60f81b8183815181106126d9577f4e487b7100000000000000000000000000000000000000000000000000000000600052603260045260246000fd5b60200101907effffffffffffffffffffffffffffffffffffffffffffffffffffffffffffff1916908160001a905350600a856127159190613a41565b945061266d565b8093505050505b919050565b60008160405160200161273b9190613417565b6040516020818303038152906040528051906020012060001c9050919050565b600061277c8473ffffffffffffffffffffffffffffffffffffffff16612976565b156128e5578373ffffffffffffffffffffffffffffffffffffffff1663150b7a026127a561137f565b8786866040518563ffffffff1660e01b81526004016127c794939291906135d6565b602060405180830381600087803b1580156127e157600080fd5b505af192505050801561281257506040513d601f19601f8201168201806040525081019061280f9190612f03565b60015b612895573d8060008114612842576040519150601f19603f3d011682016040523d82523d6000602084013e612847565b606091505b5060008151141561288d576040517f08c379a0000000000000000000000000000000000000000000000000000000008152600401612884906136c6565b60405180910390fd5b805181602001fd5b63150b7a0260e01b7bffffffffffffffffffffffffffffffffffffffffffffffffffffffff1916817bffffffffffffffffffffffffffffffffffffffffffffffffffffffff1916149150506128ea565b600190505b949350505050565b60008151905060006a636f6e736f6c652e6c6f679050602083016000808483855afa5050505050565b6129258383612989565b612932600084848461275b565b612971576040517f08c379a0000000000000000000000000000000000000000000000000000000008152600401612968906136c6565b60405180910390fd5b505050565b600080823b905060008111915050919050565b600073ffffffffffffffffffffffffffffffffffffffff168273ffffffffffffffffffffffffffffffffffffffff1614156129f9576040517f08c379a00000000000000000000000000000000000000000000000000000000081526004016129f0906137e6565b60405180910390fd5b612a0281611313565b15612a42576040517f08c379a0000000000000000000000000000000000000000000000000000000008152600401612a39906136e6565b60405180910390fd5b612a4e600083836123d2565b6001600360008473ffffffffffffffffffffffffffffffffffffffff1673ffffffffffffffffffffffffffffffffffffffff1681526020019081526020016000206000828254612a9e91906139eb565b92505081905550816002600083815260200190815260200160002060006101000a81548173ffffffffffffffffffffffffffffffffffffffff021916908373ffffffffffffffffffffffffffffffffffffffff160217905550808273ffffffffffffffffffffffffffffffffffffffff16600073ffffffffffffffffffffffffffffffffffffffff167fddf252ad1be2c89b69c2b068fc378daa952ba7f163c4a11628f55a4df523b3ef60405160405180910390a45050565b828054612b6390613bb6565b90600052602060002090601f016020900481019282612b855760008555612bcc565b82601f10612b9e57805160ff1916838001178555612bcc565b82800160010185558215612bcc579182015b82811115612bcb578251825591602001919060010190612bb0565b5b509050612bd99190612bdd565b5090565b5b80821115612bf6576000816000905550600101612bde565b5090565b6000612c0d612c0884613946565b613921565b905082815260208101848484011115612c2557600080fd5b612c30848285613b74565b509392505050565b6000612c4b612c4684613977565b613921565b905082815260208101848484011115612c6357600080fd5b612c6e848285613b74565b509392505050565b600081359050612c8581614413565b92915050565b600081359050612c9a8161442a565b92915050565b600081359050612caf81614441565b92915050565b600081519050612cc481614441565b92915050565b600082601f830112612cdb57600080fd5b8135612ceb848260208601612bfa565b91505092915050565b600082601f830112612d0557600080fd5b8135612d15848260208601612c38565b91505092915050565b600081359050612d2d81614458565b92915050565b600060208284031215612d4557600080fd5b6000612d5384828501612c76565b91505092915050565b60008060408385031215612d6f57600080fd5b6000612d7d85828601612c76565b9250506020612d8e85828601612c76565b9150509250929050565b600080600060608486031215612dad57600080fd5b6000612dbb86828701612c76565b9350506020612dcc86828701612c76565b9250506040612ddd86828701612d1e565b9150509250925092565b60008060008060808587031215612dfd57600080fd5b6000612e0b87828801612c76565b9450506020612e1c87828801612c76565b9350506040612e2d87828801612d1e565b925050606085013567ffffffffffffffff811115612e4a57600080fd5b612e5687828801612cca565b91505092959194509250565b60008060408385031215612e7557600080fd5b6000612e8385828601612c76565b9250506020612e9485828601612c8b565b9150509250929050565b60008060408385031215612eb157600080fd5b6000612ebf85828601612c76565b9250506020612ed085828601612d1e565b9150509250929050565b600060208284031215612eec57600080fd5b6000612efa84828501612ca0565b91505092915050565b600060208284031215612f1557600080fd5b6000612f2384828501612cb5565b91505092915050565b600060208284031215612f3e57600080fd5b600082013567ffffffffffffffff811115612f5857600080fd5b612f6484828501612cf4565b91505092915050565b600060208284031215612f7f57600080fd5b6000612f8d84828501612d1e565b91505092915050565b612f9f81613b00565b82525050565b612fae81613b12565b82525050565b6000612fbf826139a8565b612fc981856139be565b9350612fd9818560208601613b83565b612fe281613d4f565b840191505092915050565b6000612ff8826139b3565b61300281856139cf565b9350613012818560208601613b83565b61301b81613d4f565b840191505092915050565b6000613031826139b3565b61303b81856139e0565b935061304b818560208601613b83565b80840191505092915050565b60006130646032836139cf565b915061306f82613d60565b604082019050919050565b6000613087601c836139cf565b915061309282613daf565b602082019050919050565b60006130aa600a836139e0565b91506130b582613dd8565b600a82019050919050565b60006130cd6024836139cf565b91506130d882613e01565b604082019050919050565b60006130f06019836139cf565b91506130fb82613e50565b602082019050919050565b6000613113600b836139e0565b915061311e82613e79565b600b82019050919050565b6000613136602c836139cf565b915061314182613ea2565b604082019050919050565b6000613159600d836139e0565b915061316482613ef1565b600d82019050919050565b600061317c6038836139cf565b915061318782613f1a565b604082019050919050565b600061319f602a836139cf565b91506131aa82613f69565b604082019050919050565b60006131c26029836139cf565b91506131cd82613fb8565b604082019050919050565b60006131e5602e836139cf565b91506131f082614007565b604082019050919050565b60006132086002836139e0565b915061321382614056565b600282019050919050565b600061322b6020836139cf565b91506132368261407f565b602082019050919050565b600061324e6031836139cf565b9150613259826140a8565b604082019050919050565b6000613271602c836139cf565b915061327c826140f7565b604082019050919050565b60006132946029836139cf565b915061329f82614146565b604082019050919050565b60006132b7602f836139cf565b91506132c282614195565b604082019050919050565b60006132da600a836139e0565b91506132e5826141e4565b600a82019050919050565b60006132fd6021836139cf565b91506133088261420d565b604082019050919050565b6000613320600a836139e0565b915061332b8261425c565b600a82019050919050565b60006133436031836139cf565b915061334e82614285565b604082019050919050565b6000613366601e836139e0565b9150613371826142d4565b601e82019050919050565b60006133896005836139e0565b9150613394826142fd565b600582019050919050565b60006133ac606b836139e0565b91506133b782614326565b606b82019050919050565b60006133cf601a836139cf565b91506133da826143c1565b602082019050919050565b60006133f26014836139cf565b91506133fd826143ea565b602082019050919050565b61341181613b6a565b82525050565b60006134238284613026565b915081905092915050565b600061343a8285613026565b91506134468284613026565b91508190509392505050565b600061345e8286613026565b915061346a8285613026565b91506134768284613026565b9150819050949350505050565b600061348f8287613026565b915061349b8286613026565b91506134a78285613026565b91506134b38284613026565b91506134be8261314c565b915081905095945050505050565b60006134d78261309d565b91506134e38284613026565b915081905092915050565b60006134f982613106565b91506135058284613026565b915081905092915050565b600061351b826132cd565b91506135278285613026565b91506135328261339f565b915061353e8284613026565b9150613549826131fb565b91508190509392505050565b600061356082613313565b915061356c8284613026565b915081905092915050565b600061358282613359565b915061358e8284613026565b915081905092915050565b60006135a48261337c565b91506135b08284613026565b915081905092915050565b60006020820190506135d06000830184612f96565b92915050565b60006080820190506135eb6000830187612f96565b6135f86020830186612f96565b6136056040830185613408565b81810360608301526136178184612fb4565b905095945050505050565b60006040820190506136376000830185612f96565b6136446020830184613408565b9392505050565b60006020820190506136606000830184612fa5565b92915050565b600060208201905081810360008301526136808184612fed565b905092915050565b600060608201905081810360008301526136a28186612fed565b90506136b16020830185613408565b6136be6040830184612f96565b949350505050565b600060208201905081810360008301526136df81613057565b9050919050565b600060208201905081810360008301526136ff8161307a565b9050919050565b6000602082019050818103600083015261371f816130c0565b9050919050565b6000602082019050818103600083015261373f816130e3565b9050919050565b6000602082019050818103600083015261375f81613129565b9050919050565b6000602082019050818103600083015261377f8161316f565b9050919050565b6000602082019050818103600083015261379f81613192565b9050919050565b600060208201905081810360008301526137bf816131b5565b9050919050565b600060208201905081810360008301526137df816131d8565b9050919050565b600060208201905081810360008301526137ff8161321e565b9050919050565b6000602082019050818103600083015261381f81613241565b9050919050565b6000602082019050818103600083015261383f81613264565b9050919050565b6000602082019050818103600083015261385f81613287565b9050919050565b6000602082019050818103600083015261387f816132aa565b9050919050565b6000602082019050818103600083015261389f816132f0565b9050919050565b600060208201905081810360008301526138bf81613336565b9050919050565b600060208201905081810360008301526138df816133c2565b9050919050565b600060208201905081810360008301526138ff816133e5565b9050919050565b600060208201905061391b6000830184613408565b92915050565b600061392b61393c565b90506139378282613be8565b919050565b6000604051905090565b600067ffffffffffffffff82111561396157613960613d20565b5b61396a82613d4f565b9050602081019050919050565b600067ffffffffffffffff82111561399257613991613d20565b5b61399b82613d4f565b9050602081019050919050565b600081519050919050565b600081519050919050565b600082825260208201905092915050565b600082825260208201905092915050565b600081905092915050565b60006139f682613b6a565b9150613a0183613b6a565b9250827fffffffffffffffffffffffffffffffffffffffffffffffffffffffffffffffff03821115613a3657613a35613c93565b5b828201905092915050565b6000613a4c82613b6a565b9150613a5783613b6a565b925082613a6757613a66613cc2565b5b828204905092915050565b6000613a7d82613b6a565b9150613a8883613b6a565b9250817fffffffffffffffffffffffffffffffffffffffffffffffffffffffffffffffff0483118215151615613ac157613ac0613c93565b5b828202905092915050565b6000613ad782613b6a565b9150613ae283613b6a565b925082821015613af557613af4613c93565b5b828203905092915050565b6000613b0b82613b4a565b9050919050565b60008115159050919050565b60007fffffffff0000000000000000000000000000000000000000000000000000000082169050919050565b600073ffffffffffffffffffffffffffffffffffffffff82169050919050565b6000819050919050565b82818337600083830152505050565b60005b83811015613ba1578082015181840152602081019050613b86565b83811115613bb0576000848401525b50505050565b60006002820490506001821680613bce57607f821691505b60208210811415613be257613be1613cf1565b5b50919050565b613bf182613d4f565b810181811067ffffffffffffffff82111715613c1057613c0f613d20565b5b80604052505050565b6000613c2482613b6a565b91507fffffffffffffffffffffffffffffffffffffffffffffffffffffffffffffffff821415613c5757613c56613c93565b5b600182019050919050565b6000613c6d82613b6a565b9150613c7883613b6a565b925082613c8857613c87613cc2565b5b828206905092915050565b7f4e487b7100000000000000000000000000000000000000000000000000000000600052601160045260246000fd5b7f4e487b7100000000000000000000000000000000000000000000000000000000600052601260045260246000fd5b7f4e487b7100000000000000000000000000000000000000000000000000000000600052602260045260246000fd5b7f4e487b7100000000000000000000000000000000000000000000000000000000600052604160045260246000fd5b6000601f19601f8301169050919050565b7f4552433732313a207472616e7366657220746f206e6f6e20455243373231526560008201527f63656976657220696d706c656d656e7465720000000000000000000000000000602082015250565b7f4552433732313a20746f6b656e20616c7265616479206d696e74656400000000600082015250565b7f54484952445f574f524400000000000000000000000000000000000000000000600082015250565b7f4552433732313a207472616e7366657220746f20746865207a65726f2061646460008201527f7265737300000000000000000000000000000000000000000000000000000000602082015250565b7f4552433732313a20617070726f766520746f2063616c6c657200000000000000600082015250565b7f5345434f4e445f574f5244000000000000000000000000000000000000000000600082015250565b7f4552433732313a206f70657261746f7220717565727920666f72206e6f6e657860008201527f697374656e7420746f6b656e0000000000000000000000000000000000000000602082015250565b7f3c2f746578743e3c2f7376673e00000000000000000000000000000000000000600082015250565b7f4552433732313a20617070726f76652063616c6c6572206973206e6f74206f7760008201527f6e6572206e6f7220617070726f76656420666f7220616c6c0000000000000000602082015250565b7f4552433732313a2062616c616e636520717565727920666f7220746865207a6560008201527f726f206164647265737300000000000000000000000000000000000000000000602082015250565b7f4552433732313a206f776e657220717565727920666f72206e6f6e657869737460008201527f656e7420746f6b656e0000000000000000000000000000000000000000000000602082015250565b7f45524337323155524953746f726167653a2055524920736574206f66206e6f6e60008201527f6578697374656e7420746f6b656e000000000000000000000000000000000000602082015250565b7f227d000000000000000000000000000000000000000000000000000000000000600082015250565b7f4552433732313a206d696e7420746f20746865207a65726f2061646472657373600082015250565b7f45524337323155524953746f726167653a2055524920717565727920666f722060008201527f6e6f6e6578697374656e7420746f6b656e000000000000000000000000000000602082015250565b7f4552433732313a20617070726f76656420717565727920666f72206e6f6e657860008201527f697374656e7420746f6b656e0000000000000000000000000000000000000000602082015250565b7f4552433732313a207472616e73666572206f6620746f6b656e2074686174206960008201527f73206e6f74206f776e0000000000000000000000000000000000000000000000602082015250565b7f4552433732314d657461646174613a2055524920717565727920666f72206e6f60008201527f6e6578697374656e7420746f6b656e0000000000000000000000000000000000602082015250565b7f7b226e616d65223a202200000000000000000000000000000000000000000000600082015250565b7f4552433732313a20617070726f76616c20746f2063757272656e74206f776e6560008201527f7200000000000000000000000000000000000000000000000000000000000000602082015250565b7f46495253545f574f524400000000000000000000000000000000000000000000600082015250565b7f4552433732313a207472616e736665722063616c6c6572206973206e6f74206f60008201527f776e6572206e6f7220617070726f766564000000000000000000000000000000602082015250565b7f646174613a6170706c69636174696f6e2f6a736f6e3b6261736536342c200000600082015250565b7f434f4c4f52000000000000000000000000000000000000000000000000000000600082015250565b7f222c20226465736372697074696f6e223a20224120686967686c79206163636c60008201527f61696d656420636f6c6c656374696f6e206f66205261726920416e696d65204e60208201527f616d6573222c2022696d616765223a2022646174613a696d6167652f7376672b60408201527f786d6c3b6261736536342c000000000000000000000000000000000000000000606082015250565b7f416c6c204e4654277320686173206265656e206d696e74656421000000000000600082015250565b7f53656e646572206973206e6f74206f776e657221000000000000000000000000600082015250565b61441c81613b00565b811461442757600080fd5b50565b61443381613b12565b811461443e57600080fd5b50565b61444a81613b1e565b811461445557600080fd5b50565b61446181613b6a565b811461446c57600080fd5b5056fe416e204e465420772f20494420257320686173206265656e206d696e74656420746f2025733c73766720786d6c6e733d27687474703a2f2f7777772e77332e6f72672f323030302f73766727207072657365727665417370656374526174696f3d27784d696e594d696e206d656574272076696577426f783d273020302033353020333530273e3c7374796c653e2e62617365207b2066696c6c3a2077686974653b20666f6e742d66616d696c793a2073657269663b20666f6e742d73697a653a20323470783b207d3c2f7374796c653e3c726563742077696474683d273130302527206865696768743d2731303025272066696c6c3d274142434445464748494a4b4c4d4e4f505152535455565758595a6162636465666768696a6b6c6d6e6f707172737475767778797a303132333435363738392b2f272f3e3c7465787420783d273530252720793d273530252720636c6173733d27626173652720646f6d696e616e742d626173656c696e653d276d6964646c652720746578742d616e63686f723d276d6964646c65273ea26469706673582212206492629bc4ee2eae8afb9513cdab2afec4d03f7a3a3e2d85c1332b73dd5f81ad64736f6c63430008040033",
  "linkReferences": {},
  "deployedLinkReferences": {}
}